{"abi":[{"type":"constructor","inputs":[{"name":"_registry","type":"address","internalType":"address"}],"stateMutability":"nonpayable"},{"type":"function","name":"agentRegistry","inputs":[],"outputs":[{"name":"","type":"address","internalType":"contract IAgentRegistry"}],"stateMutability":"view"},{"type":"function","name":"authorPosts","inputs":[{"name":"","type":"address","internalType":"address"},{"name":"","type":"uint256","internalType":"uint256"}],"outputs":[{"name":"","type":"uint256","internalType":"uint256"}],"stateMutability":"view"},{"type":"function","name":"createPost","inputs":[{"name":"contentHash","type":"bytes32","internalType":"bytes32"},{"name":"blobHash","type":"bytes32","internalType":"bytes32"}],"outputs":[{"name":"","type":"uint256","internalType":"uint256"}],"stateMutability":"nonpayable"},{"type":"function","name":"follow","inputs":[{"name":"toFollow","type":"address","internalType":"address"}],"outputs":[],"stateMutability":"nonpayable"},{"type":"function","name":"followerCount","inputs":[{"name":"","type":"address","internalType":"address"}],"outputs":[{"name":"","type":"uint256","internalType":"uint256"}],"stateMutability":"view"},{"type":"function","name":"followingCount","inputs":[{"name":"","type":"address","internalType":"address"}],"outputs":[{"name":"","type":"uint256","internalType":"uint256"}],"stateMutability":"view"},{"type":"function","name":"follows","inputs":[{"name":"","type":"address","internalType":"address"},{"name":"","type":"address","internalType":"address"}],"outputs":[{"name":"","type":"bool","internalType":"bool"}],"stateMutability":"view"},{"type":"function","name":"getAgentId","inputs":[{"name":"addr","type":"address","internalType":"address"}],"outputs":[{"name":"","type":"uint256","internalType":"uint256"}],"stateMutability":"view"},{"type":"function","name":"getAuthorPostIds","inputs":[{"name":"author","type":"address","internalType":"address"}],"outputs":[{"name":"","type":"uint256[]","internalType":"uint256[]"}],"stateMutability":"view"},{"type":"function","name":"getPost","inputs":[{"name":"postId","type":"uint256","internalType":"uint256"}],"outputs":[{"name":"","type":"tuple","internalType":"struct BlobSocialVerified.PostAnchor","components":[{"name":"author","type":"address","internalType":"address"},{"name":"agentId","type":"uint256","internalType":"uint256"},{"name":"contentHash","type":"bytes32","internalType":"bytes32"},{"name":"blobHash","type":"bytes32","internalType":"bytes32"},{"name":"timestamp","type":"uint256","internalType":"uint256"}]}],"stateMutability":"view"},{"type":"function","name":"isFollowing","inputs":[{"name":"follower","type":"address","internalType":"address"},{"name":"following","type":"address","internalType":"address"}],"outputs":[{"name":"","type":"bool","internalType":"bool"}],"stateMutability":"view"},{"type":"function","name":"isRegisteredAgent","inputs":[{"name":"addr","type":"address","internalType":"address"}],"outputs":[{"name":"","type":"bool","internalType":"bool"}],"stateMutability":"view"},{"type":"function","name":"postCount","inputs":[],"outputs":[{"name":"","type":"uint256","internalType":"uint256"}],"stateMutability":"view"},{"type":"function","name":"posts","inputs":[{"name":"","type":"uint256","internalType":"uint256"}],"outputs":[{"name":"author","type":"address","internalType":"address"},{"name":"agentId","type":"uint256","internalType":"uint256"},{"name":"contentHash","type":"bytes32","internalType":"bytes32"},{"name":"blobHash","type":"bytes32","internalType":"bytes32"},{"name":"timestamp","type":"uint256","internalType":"uint256"}],"stateMutability":"view"},{"type":"function","name":"unfollow","inputs":[{"name":"toUnfollow","type":"address","internalType":"address"}],"outputs":[],"stateMutability":"nonpayable"},{"type":"event","name":"Followed","inputs":[{"name":"follower","type":"address","indexed":true,"internalType":"address"},{"name":"following","type":"address","indexed":true,"internalType":"address"},{"name":"timestamp","type":"uint256","indexed":false,"internalType":"uint256"}],"anonymous":false},{"type":"event","name":"PostCreated","inputs":[{"name":"postId","type":"uint256","indexed":true,"internalType":"uint256"},{"name":"author","type":"address","indexed":true,"internalType":"address"},{"name":"agentId","type":"uint256","indexed":true,"internalType":"uint256"},{"name":"contentHash","type":"bytes32","indexed":false,"internalType":"bytes32"},{"name":"timestamp","type":"uint256","indexed":false,"internalType":"uint256"}],"anonymous":false},{"type":"event","name":"Unfollowed","inputs":[{"name":"follower","type":"address","indexed":true,"internalType":"address"},{"name":"following","type":"address","indexed":true,"internalType":"address"},{"name":"timestamp","type":"uint256","indexed":false,"internalType":"uint256"}],"anonymous":false},{"type":"error","name":"AlreadyFollowing","inputs":[]},{"type":"error","name":"CannotFollowSelf","inputs":[]},{"type":"error","name":"NotFollowing","inputs":[]},{"type":"error","name":"NotRegisteredAgent","inputs":[]}],"bytecode":{"object":"0x60a060405234801561000f575f5ffd5b50604051611716380380611716833981810160405281019061003191906100c9565b8073ffffffffffffffffffffffffffffffffffffffff1660808173ffffffffffffffffffffffffffffffffffffffff1681525050506100f4565b5f5ffd5b5f73ffffffffffffffffffffffffffffffffffffffff82169050919050565b5f6100988261006f565b9050919050565b6100a88161008e565b81146100b2575f5ffd5b50565b5f815190506100c38161009f565b92915050565b5f602082840312156100de576100dd61006b565b5b5f6100eb848285016100b5565b91505092915050565b6080516115fc61011a5f395f8181610615015281816107160152610ebb01526115fc5ff3fe608060405234801561000f575f5ffd5b50600436106100f3575f3560e01c806340731c2411610095578063645487071161006457806364548707146102bf5780636df4973c146102ef57806399ec3a421461031f578063e21b38d21461034f576100f3565b806340731c24146102135780634dbf27cc14610243578063587599901461025f5780635d1ca4761461028f576100f3565b80630d1cfcae116100d15780630d1cfcae1461017757806317906c2e1461019557806330b3a890146101b3578063325b52f7146101e3576100f3565b8063015a4ead146100f7578063042324b6146101135780630b1e7f8314610143575b5f5ffd5b610111600480360381019061010c9190610ff7565b61037f565b005b61012d60048036038101906101289190610ff7565b6105d3565b60405161013a919061103a565b60405180910390f35b61015d6004803603810190610158919061107d565b6106b4565b60405161016e9594939291906110cf565b60405180910390f35b61017f610714565b60405161018c919061117b565b60405180910390f35b61019d610738565b6040516101aa919061103a565b60405180910390f35b6101cd60048036038101906101c89190610ff7565b610744565b6040516101da919061103a565b60405180910390f35b6101fd60048036038101906101f891906111be565b610759565b60405161020a919061103a565b60405180910390f35b61022d6004803603810190610228919061107d565b61093f565b60405161023a919061128f565b60405180910390f35b61025d60048036038101906102589190610ff7565b6109f5565b005b61027960048036038101906102749190610ff7565b610d2e565b6040516102869190611350565b60405180910390f35b6102a960048036038101906102a49190611370565b610dc1565b6040516102b691906113c8565b60405180910390f35b6102d960048036038101906102d49190610ff7565b610dea565b6040516102e6919061103a565b60405180910390f35b610309600480360381019061030491906113e1565b610dff565b604051610316919061103a565b60405180910390f35b61033960048036038101906103349190611370565b610e2a565b60405161034691906113c8565b60405180910390f35b61036960048036038101906103649190610ff7565b610eb7565b60405161037691906113c8565b60405180910390f35b5f5f3373ffffffffffffffffffffffffffffffffffffffff1673ffffffffffffffffffffffffffffffffffffffff1681526020019081526020015f205f8273ffffffffffffffffffffffffffffffffffffffff1673ffffffffffffffffffffffffffffffffffffffff1681526020019081526020015f205f9054906101000a900460ff16610439576040517f8b67bbcc00000000000000000000000000000000000000000000000000000000815260040160405180910390fd5b5f5f5f3373ffffffffffffffffffffffffffffffffffffffff1673ffffffffffffffffffffffffffffffffffffffff1681526020019081526020015f205f8373ffffffffffffffffffffffffffffffffffffffff1673ffffffffffffffffffffffffffffffffffffffff1681526020019081526020015f205f6101000a81548160ff02191690831515021790555060015f8273ffffffffffffffffffffffffffffffffffffffff1673ffffffffffffffffffffffffffffffffffffffff1681526020019081526020015f205f8154809291906105149061144c565b919050555060025f3373ffffffffffffffffffffffffffffffffffffffff1673ffffffffffffffffffffffffffffffffffffffff1681526020019081526020015f205f8154809291906105669061144c565b91905055508073ffffffffffffffffffffffffffffffffffffffff163373ffffffffffffffffffffffffffffffffffffffff167ff0d82ce49539682842fa26e91dc8cc93b97878e7016e1a4c2603a73b0573a31b426040516105c8919061103a565b60405180910390a350565b5f6105dd82610eb7565b610613576040517ff6b72bbe00000000000000000000000000000000000000000000000000000000815260040160405180910390fd5b7f000000000000000000000000000000000000000000000000000000000000000073ffffffffffffffffffffffffffffffffffffffff16632f745c59835f6040518363ffffffff1660e01b815260040161066e9291906114ac565b602060405180830381865afa158015610689573d5f5f3e3d5ffd5b505050506040513d601f19601f820116820180604052508101906106ad91906114e7565b9050919050565b600381815481106106c3575f80fd5b905f5260205f2090600502015f91509050805f015f9054906101000a900473ffffffffffffffffffffffffffffffffffffffff16908060010154908060020154908060030154908060040154905085565b7f000000000000000000000000000000000000000000000000000000000000000081565b5f600380549050905090565b6001602052805f5260405f205f915090505481565b5f61076333610eb7565b610799576040517ff6b72bbe00000000000000000000000000000000000000000000000000000000815260040160405180910390fd5b5f6107a3336105d3565b90505f600380549050905060036040518060a001604052803373ffffffffffffffffffffffffffffffffffffffff16815260200184815260200187815260200186815260200142815250908060018154018082558091505060019003905f5260205f2090600502015f909190919091505f820151815f015f6101000a81548173ffffffffffffffffffffffffffffffffffffffff021916908373ffffffffffffffffffffffffffffffffffffffff16021790555060208201518160010155604082015181600201556060820151816003015560808201518160040155505060045f3373ffffffffffffffffffffffffffffffffffffffff1673ffffffffffffffffffffffffffffffffffffffff1681526020019081526020015f2081908060018154018082558091505060019003905f5260205f20015f9091909190915055813373ffffffffffffffffffffffffffffffffffffffff16827fd69d19552a266d71b569f92a1eaf4c8cbb6fe3c29edf245692fe381960637fe5884260405161092c929190611512565b60405180910390a4809250505092915050565b610947610f59565b6003828154811061095b5761095a611539565b5b905f5260205f2090600502016040518060a00160405290815f82015f9054906101000a900473ffffffffffffffffffffffffffffffffffffffff1673ffffffffffffffffffffffffffffffffffffffff1673ffffffffffffffffffffffffffffffffffffffff1681526020016001820154815260200160028201548152602001600382015481526020016004820154815250509050919050565b6109fe33610eb7565b610a34576040517ff6b72bbe00000000000000000000000000000000000000000000000000000000815260040160405180910390fd5b610a3d81610eb7565b610a73576040517ff6b72bbe00000000000000000000000000000000000000000000000000000000815260040160405180910390fd5b3373ffffffffffffffffffffffffffffffffffffffff168173ffffffffffffffffffffffffffffffffffffffff1603610ad8576040517fa0adb2fa00000000000000000000000000000000000000000000000000000000815260040160405180910390fd5b5f5f3373ffffffffffffffffffffffffffffffffffffffff1673ffffffffffffffffffffffffffffffffffffffff1681526020019081526020015f205f8273ffffffffffffffffffffffffffffffffffffffff1673ffffffffffffffffffffffffffffffffffffffff1681526020019081526020015f205f9054906101000a900460ff1615610b93576040517f46304f2400000000000000000000000000000000000000000000000000000000815260040160405180910390fd5b60015f5f3373ffffffffffffffffffffffffffffffffffffffff1673ffffffffffffffffffffffffffffffffffffffff1681526020019081526020015f205f8373ffffffffffffffffffffffffffffffffffffffff1673ffffffffffffffffffffffffffffffffffffffff1681526020019081526020015f205f6101000a81548160ff02191690831515021790555060015f8273ffffffffffffffffffffffffffffffffffffffff1673ffffffffffffffffffffffffffffffffffffffff1681526020019081526020015f205f815480929190610c6f90611566565b919050555060025f3373ffffffffffffffffffffffffffffffffffffffff1673ffffffffffffffffffffffffffffffffffffffff1681526020019081526020015f205f815480929190610cc190611566565b91905055508073ffffffffffffffffffffffffffffffffffffffff163373ffffffffffffffffffffffffffffffffffffffff167f3c6c72719f49f1721deae7d1e022c10b064d4ce00a2d007ee158f1ea9aca413942604051610d23919061103a565b60405180910390a350565b606060045f8373ffffffffffffffffffffffffffffffffffffffff1673ffffffffffffffffffffffffffffffffffffffff1681526020019081526020015f20805480602002602001604051908101604052809291908181526020018280548015610db557602002820191905f5260205f20905b815481526020019060010190808311610da1575b50505050509050919050565b5f602052815f5260405f20602052805f5260405f205f915091509054906101000a900460ff1681565b6002602052805f5260405f205f915090505481565b6004602052815f5260405f208181548110610e18575f80fd5b905f5260205f20015f91509150505481565b5f5f5f8473ffffffffffffffffffffffffffffffffffffffff1673ffffffffffffffffffffffffffffffffffffffff1681526020019081526020015f205f8373ffffffffffffffffffffffffffffffffffffffff1673ffffffffffffffffffffffffffffffffffffffff1681526020019081526020015f205f9054906101000a900460ff16905092915050565b5f5f7f000000000000000000000000000000000000000000000000000000000000000073ffffffffffffffffffffffffffffffffffffffff166370a08231846040518263ffffffff1660e01b8152600401610f1291906115ad565b602060405180830381865afa158015610f2d573d5f5f3e3d5ffd5b505050506040513d601f19601f82011682018060405250810190610f5191906114e7565b119050919050565b6040518060a001604052805f73ffffffffffffffffffffffffffffffffffffffff1681526020015f81526020015f81526020015f81526020015f81525090565b5f5ffd5b5f73ffffffffffffffffffffffffffffffffffffffff82169050919050565b5f610fc682610f9d565b9050919050565b610fd681610fbc565b8114610fe0575f5ffd5b50565b5f81359050610ff181610fcd565b92915050565b5f6020828403121561100c5761100b610f99565b5b5f61101984828501610fe3565b91505092915050565b5f819050919050565b61103481611022565b82525050565b5f60208201905061104d5f83018461102b565b92915050565b61105c81611022565b8114611066575f5ffd5b50565b5f8135905061107781611053565b92915050565b5f6020828403121561109257611091610f99565b5b5f61109f84828501611069565b91505092915050565b6110b181610fbc565b82525050565b5f819050919050565b6110c9816110b7565b82525050565b5f60a0820190506110e25f8301886110a8565b6110ef602083018761102b565b6110fc60408301866110c0565b61110960608301856110c0565b611116608083018461102b565b9695505050505050565b5f819050919050565b5f61114361113e61113984610f9d565b611120565b610f9d565b9050919050565b5f61115482611129565b9050919050565b5f6111658261114a565b9050919050565b6111758161115b565b82525050565b5f60208201905061118e5f83018461116c565b92915050565b61119d816110b7565b81146111a7575f5ffd5b50565b5f813590506111b881611194565b92915050565b5f5f604083850312156111d4576111d3610f99565b5b5f6111e1858286016111aa565b92505060206111f2858286016111aa565b9150509250929050565b61120581610fbc565b82525050565b61121481611022565b82525050565b611223816110b7565b82525050565b60a082015f82015161123d5f8501826111fc565b506020820151611250602085018261120b565b506040820151611263604085018261121a565b506060820151611276606085018261121a565b506080820151611289608085018261120b565b50505050565b5f60a0820190506112a25f830184611229565b92915050565b5f81519050919050565b5f82825260208201905092915050565b5f819050602082019050919050565b5f6112dc838361120b565b60208301905092915050565b5f602082019050919050565b5f6112fe826112a8565b61130881856112b2565b9350611313836112c2565b805f5b8381101561134357815161132a88826112d1565b9750611335836112e8565b925050600181019050611316565b5085935050505092915050565b5f6020820190508181035f83015261136881846112f4565b905092915050565b5f5f6040838503121561138657611385610f99565b5b5f61139385828601610fe3565b92505060206113a485828601610fe3565b9150509250929050565b5f8115159050919050565b6113c2816113ae565b82525050565b5f6020820190506113db5f8301846113b9565b92915050565b5f5f604083850312156113f7576113f6610f99565b5b5f61140485828601610fe3565b925050602061141585828601611069565b9150509250929050565b7f4e487b71000000000000000000000000000000000000000000000000000000005f52601160045260245ffd5b5f61145682611022565b91505f82036114685761146761141f565b5b600182039050919050565b5f819050919050565b5f61149661149161148c84611473565b611120565b611022565b9050919050565b6114a68161147c565b82525050565b5f6040820190506114bf5f8301856110a8565b6114cc602083018461149d565b9392505050565b5f815190506114e181611053565b92915050565b5f602082840312156114fc576114fb610f99565b5b5f611509848285016114d3565b91505092915050565b5f6040820190506115255f8301856110c0565b611532602083018461102b565b9392505050565b7f4e487b71000000000000000000000000000000000000000000000000000000005f52603260045260245ffd5b5f61157082611022565b91507fffffffffffffffffffffffffffffffffffffffffffffffffffffffffffffffff82036115a2576115a161141f565b5b600182019050919050565b5f6020820190506115c05f8301846110a8565b9291505056fea26469706673582212200a936dd9c2b3f34c5a0b38f2d6419599c9fcbe69b2697c12c77a9277cc1a2f7d64736f6c63430008210033","linkReferences":{}},"methodIdentifiers":{"agentRegistry()":"0d1cfcae","authorPosts(address,uint256)":"6df4973c","createPost(bytes32,bytes32)":"325b52f7","follow(address)":"4dbf27cc","followerCount(address)":"30b3a890","followingCount(address)":"64548707","follows(address,address)":"5d1ca476","getAgentId(address)":"042324b6","getAuthorPostIds(address)":"58759990","getPost(uint256)":"40731c24","isFollowing(address,address)":"99ec3a42","isRegisteredAgent(address)":"e21b38d2","postCount()":"17906c2e","posts(uint256)":"0b1e7f83","unfollow(address)":"015a4ead"},"id":16}